:060000000200190200B726
:03000B000200D719
:030013000202A442
:200072007522007523007524007525FF7526FF7527647528C8752A08752D00752E00752F7E
:2000920000753000E4F558F559755A64C200C201C202C203C204D205C206C207C208C20A25
:0500B200C2B7020016B8
:030016000202D211
:2000B700C0E0C0D0C2A820900A74FE2522400C0522800874FE252340020523D0D0D0E0327B
:2000D700C0E0C0D0D5240B200103300205852A24B2B1D5283F7528C8D52705752764D200D0
:2000F700300207B203200302C2022090117402B5220630B203752203D290C291800F7402C5
:20011700B5230630B203752303D291C290D2A812028E800312028DD0D0D0E032C0E0C0D0C3
:20013700E528C39529500224C804B528FDD0D0D0E022AF82A20B92B4C2B5EFA2E4920C924C
:2001570094EFA2E5920C9295EFA2E6920C9296EF33920C9297752902120133D2B77529087E
:20017700120133C2B7752904120133D2B5D2B422AF8274F05FFEA20D920B8E82C00712016A
:2001970049D007EFC454F0FF74F05FFEA20D920B8E8212014922AF82C20D8F821201877577
:2001B700F064E556842430F55175F064E5568485F05675F00AE556842430F55275F00AE50B
:2001D7005684E5F02430F5537F00EFB5570CD20D75822EC007120187D007EF2451F9878295
:2001F700D20DC007120187D0070FBF030040DB22C2B7C20075276410000280FBC20B758237
:20021700301201492090FD2091FDC20B7582301201492090FD2091FDC20B758230120149E5
:20023700752904120133C20B7582201201497529041201337F00EF90034393FEC20D8E82E3
:20025700C007120187D0072090FD2091FD0FBF040040E322D2B975A893758922758ACE7540
:200277008CCE758BF3758DF37587807598C8D28CD28E1202072222D55A12D292755A04E55A
:200297005A6004155A80F8755A64C29222C0E0C007C006C0D075D000AE8D7F008E598F586F
:2002B700AE8B7F00EE2558F558EF3559F5598F8B8F8DD0D0D006D007D0E032C29212026BB4
:2002D700758992D28AD2AA7F00EF90034793FED20D8E82C007120187D0070FBF0F0040E999
:1F02F70075083A750900855882855983120316AE828E567557047582C01201AD80E222E9
:1403430028060E0144697374616E6369612028636D293A005E
:200316007A10E4FBFCE58225E0F582E58333F583EB33FBEC33FCEB9508F5F0EC95094006FB
:09033600FCABF0438201DADD2288
:06004800E478FFF6D8FD8C
:200026007900E94400601B7A00900357780175A000E493F2A308B8000205A0D9F4DAF27526
:02004600A0FF19
:20004E007800E84400600A790175A000E4F309D8FC7800E84400600C7900900001E4F0A3B0
:04006E00D8FCD9FAE7
:0D00190075815A12033FE582600302001654
:04033F0075820022A1
:00000001FF
